:040000006CEF00F0B1
:100008005F82FACF3DF0FBCF3EF0E9CF3FF0EACF79
:1000180040F0E1CF41F0E2CF42F0D9CF43F0DACF60
:1000280044F0F3CF45F0F4CF46F0F6CF47F0F7CFE2
:1000380048F0F8CF49F0F5CF4AF05FC04BF060C008
:100048004CF061C04DF062C04EF0F2BAF2A403D099
:1000580008EC12F017D0F2BCA3A805D0A4A803D0CE
:1000680010EC11F00FD0F2BCA3AA06D0A4AA04D0B9
:10007800A49AD7EC03F006D0F2BC9DA203D09EB29E
:100088009DEC11F04EC062F04DC061F04CC060F0C4
:100098004BC05FF04AC0F5FF49C0F8FF48C0F7FF02
:1000A80047C0F6FF46C0F4FF45C0F3FF44C0DAFF7F
:1000B80043C0D9FF42C0E2FF41C0E1FF40C0EAFFB0
:1000C8003FC0E9FF3EC0FBFF3DC0FAFF5F92110051
:1000D800BEEF0FF00101E36FE3C1E5F1D9C1DFF134
:1000E800DAC1E6F1D8C1E7F1010174510101E31960
:1000F8000101E06F010173510101D9190101E16F9B
:10010800000E0101E46F0101E6A905D0010E01010D
:100118001D6F2C0E1C6F0101E6AB05D0010E01010D
:100128001F6F2C0E1E6F0101E7A905D0010E0101FA
:10013800096F2C0E086F01011DBF0AD001011D5166
:1001480004E101011C05D8A003D00101E48902D013
:100158000101E49901011FBF0AD001011F5104E107
:1001680001011E05D8A003D00101E48B02D00101D2
:10017800E49B010109BF0AD00101095104E1010111
:100188000805D8A003D00101E28902D00101E29953
:100198000101729101017295010172B704D0010148
:1001A800DD6BDD2B02D00101DD6B0101E6AB04D074
:1001B8000101DE6BDE2B02D00101DE6B0101E6A935
:1001C80002D0010E01D0000E0101DE110101DD1582
:1001D8000009D8A413D0010E0101E7A9000E0101FE
:1001E800E5A9000EE8A004D00101DD6BDD2B02D0EB
:1001F8000101DD6B0101DD51D8B410D00101728716
:10020800B10E0101CD6F7F0E0101CE6F000E01010D
:10021800D06F090ECF6F2BEC0DF042D0010172A701
:1002280004D00101DD6BDD2B02D00101DD6B010182
:10023800E6AB04D00101DE6BDE2B02D00101DE6BE0
:100248000101E6A902D0010E01D0000E0101DE1164
:100258000101DD150009D8A414D00101E7A904D0D3
:100268000101DD6BDD2B02D00101DD6B0101E5B978
:1002780002D0010E01D0000E0101DD150009D8B42D
:100288000FD0010172977B0E0101CD6F7F0E010126
:10029800CE6F000E0101D06F090ECF6F2BEC0DF061
:1002A8000101E4B918D00101E4BB15D00101E2B99C
:1002B80012D0010172A70FD0010172977B0E0101C4
:1002C800CD6F7F0E0101CE6F000E0101D06F090EB8
:1002D800CF6F2BEC0DF00101E6AF04D00101DD6B0F
:1002E800DD2B02D00101DD6B010172B302D0010EDA
:1002F80001D0000E0101DD150009D8A413D0010EAC
:100308000101E7AF000E0101E5AF000EE8A004D03F
:100318000101DD6BDD2B02D00101DD6B0101DD5137
:10032800D8B410D001017283BA0E0101CD6F7F0ECF
:100338000101CE6F000E0101D06F090ECF6F2BECBB
:100348000DF036D0010E0101E6AF000E010172A3D7
:10035800000EE8A004D00101DD6BDD2B02D0010105
:10036800DD6B0101DD51D8A414D00101E7AF04D041
:100378000101DD6BDD2B02D00101DD6B0101E5BF61
:1003880002D0010E01D0000E0101DD150009D8B41C
:100398000FD001017293840E0101CD6F7F0E010110
:1003A800CE6F000E0101D06F090ECF6F2BEC0DF050
:1003B8000101E6A704D00101DD6BDD2B02D00101AC
:1003C800DD6B010172B902D0010E01D0000E0101EE
:1003D800DD150009D8A413D0010E0101E7A7000E0E
:1003E8000101E5A7000EE8A004D00101DD6BDD2BBB
:1003F80002D00101DD6B0101DD51D8B410D001013B
:100408007289A80E0101CD6F7F0E0101CE6F000E1B
:100418000101D06F090ECF6F2BEC0DF036D0010E15
:100428000101E6A7000E010172A9000EE8A004D0A0
:100438000101DD6BDD2B02D00101DD6B0101DD5116
:10044800D8A414D00101E7A704D00101DD6BDD2B8E
:1004580002D00101DD6B0101E5B702D0010E01D028
:10046800000E0101DD150009D8B40FD00101729901
:10047800720E0101CD6F7F0E0101CE6F000E0101DA
:10048800D06F090ECF6F2BEC0DF00101E6A504D05B
:100498000101DD6BDD2B02D00101DD6B010172BBB7
:1004A80002D0010E01D0000E0101DD150009D8A40B
:1004B80013D0010E0101E7A5000E0101E5A5000E0C
:1004C800E8A004D00101DD6BDD2B02D00101DD6B5A
:1004D8000101DD51D8B410D00101728B9F0E0101CA
:1004E800CD6F7F0E0101CE6F000E0101D06F090E96
:1004F800CF6F2BEC0DF036D0010E0101E6A5000EF2
:10050800010172AB000EE8A004D00101DD6BDD2B08
:1005180002D00101DD6B0101DD51D8A414D0010125
:10052800E7A504D00101DD6BDD2B02D00101DD6BF5
:100538000101E5B502D0010E01D0000E0101DD1563
:100548000009D8B40FD00101729B690E0101CD6F6B
:100558007F0E0101CE6F000E0101D06F090ECF6F23
:100568002BEC0DF00101E6A104D00101DD6BDD2BC0
:1005780002D00101DD6B010172BD02D0010E01D074
:10058800000E0101DD150009D8A413D0010E0101E8
:10059800E7A1000E0101E5A1000EE8A004D00101C9
:1005A800DD6BDD2B02D00101DD6B0101DD51D8B41B
:1005B80010D00101728D8D0E0101CD6F7F0E0101EA
:1005C800CE6F000E0101D06F090ECF6F2BEC0DF02E
:1005D80036D0010E0101E6A1000E010172AD000E38
:1005E800E8A004D00101DD6BDD2B02D00101DD6B39
:1005F8000101DD51D8A414D00101E7A104D0010103
:10060800DD6BDD2B02D00101DD6B0101E5B102D00C
:10061800010E01D0000E0101DD150009D8B40FD07C
:100628000101729D570E0101CD6F7F0E0101CE6F42
:10063800000E0101D06F090ECF6F2BEC0DF00101F8
:10064800E6A304D00101DD6BDD2B02D00101DD6BD7
:10065800010172BF02D0010E01D0000E0101DD15AB
:100668000009D8A413D0010E0101E7A3000E01016F
:10067800E5A3000EE8A004D00101DD6BDD2B02D05C
:100688000101DD6B0101DD51D8B410D00101728F79
:10069800960E0101CD6F7F0E0101CE6F000E010194
:1006A800D06F090ECF6F2BEC0DF036D0010E010183
:1006B800E6A3000E010172AF000EE8A004D001010C
:1006C800DD6BDD2B02D00101DD6B0101DD51D8A40A
:1006D80014D00101E7A304D00101DD6BDD2B02D0AA
:1006E8000101DD6B0101E5B302D0010E01D0000E5E
:1006F8000101DD150009D8B40FD00101729F600E09
:100708000101CD6F7F0E0101CE6F000E0101D06F88
:10071800090ECF6F2BEC0DF00101E7A105D0000EFB
:100728000101916F000E906F0101E7A305D0000E43
:100738000101936F000E926F0101E7A505D0000E2D
:100748000101956F000E946F0101E7A705D0000E17
:100758000101976F000E966F0101E7A905D0000E01
:100768000101996F000E986F0101E7AB05D0000EEB
:1007780001019B6F000E9A6F0101E7AD05D0000ED5
:1007880001019D6F000E9C6F0101E7AF05D0000EBF
:1007980001019F6F000E9E6FE3C174F1D9C173F11F
:1007A800010172511200EF0EF66E7E0EF76E20EE0A
:1007B80060F0130E0900F5CFDEFFE806FBE2000E3D
:1007C8000001B06F000EAF6F74CFB1F00001B26BD3
:1007D800210E0001AD6F5F0E0001AE6F7E0E0001AD
:1007E800A26FF8C09CF0F9C09DF0FAC09EF0F5C069
:1007F8009FF0F6C0A0F0F7C0A1F00001AD51356E32
:10080800366A0001B15135181AE10001B2513618A3
:10081800D8A415D0CF0E016E000E026E000E046E25
:10082800000E036E000E066E140E056E27EC11F016
:10083800B1C0CFF0000E0001CE6F010E61D00001F3
:10084800AE51356E366A0001B15135182EE10001FE
:10085800B2513618D8A429D0CF0E0001CD25D96EB3
:10086800000E0001CE21DA6EB1C0DFFF010E0001DB
:10087800CD25356E000E0001CE21366ECF0E352403
:10088800D96E000E3620DA6E000EDF6ECDC0CBF0CA
:10089800CEC0CCF0000E0001CE6F000ECD6F000E62
:1008A8000001B06F010EAF6F2CD00001CEBF08D091
:1008B8000001CE5113E1140E0001CD5DD8B00ED069
:1008C800CF0E0001CD25D96E000E0001CE21DA6EC3
:1008D800B1C0DFFF0001CD4BCE2B13D0CF0E016E80
:1008E800000E026E000E046E000E036E000E066E01
:1008F800140E056E27EC11F0000E0001CE6F000EED
:10090800CD6F0001AF050001B011D8A493D1000E3E
:100918000001B06F000EAF6FE20E016E7F0E026E27
:10092800CF0E036E000E046E000E066E040E056EEA
:10093800BAEC0DF001500210D8A468D00001CCBF69
:1009480079D10001CC5105E1070E0001CB5DD8A09B
:1009580071D12F0E0001D4656DD1380E0001D4611C
:1009680069D1310E0001D519D8B405D0300E000177
:10097800D519D8A45FD18DB203D0356A352A01D0F4
:10098800356A35468D503518FD0B35188D6ED00EED
:10099800356EFF0E366E0001D551376E386A355008
:1009A800372636503822A00E396EFF0E3A6E0001F7
:1009B800D4513B6E3C6AD8903B363C3639503B2686
:1009C8003A503C22A40E3B24D96E010E3C20DA6E2C
:1009D80037C0DEFF38C0DDFFA00E356EFF0E366E65
:1009E8000001D451376E386AD890373638363550CA
:1009F800372636503822900E3724D96E010E38200B
:100A0800DA6E010EDE6E000EDD6E14D1F90E016E87
:100A18007F0E026ECF0E036E000E046E000E066E81
:100A2800040E056EBAEC0DF001500210D8B402D1D4
:100A3800DC0E016E7F0E026ECF0E036E000E046E8A
:100A4800000E066E040E056EBAEC0DF00150021091
:100A5800D8B4F0D0F40E016E7F0E026ECF0E036E86
:100A6800000E046E000E066E040E056EBAEC0DF054
:100A780001500210D8B4DED0D00E016E7F0E026E87
:100A8800CF0E036E000E046E000E066E040E056E89
:100A9800BAEC0DF001500210D8B4CCD0CA0E016ED9
:100AA8007F0E026ECF0E036E000E046E000E066EF1
:100AB800040E056EBAEC0DF001500210D8B4BAD08D
:100AC800EE0E016E7F0E026ECF0E036E000E046EE8
:100AD800000E066E040E056EBAEC0DF00150021001
:100AE800D8B4A8D0D60E016E7F0E026ECF0E036E5C
:100AF800000E046E000E066E040E056EBAEC0DF0C4
:100B080001500210D8A45BD022EE40F010EE74F031
:100B1800270EDBCFE3FFE806FCE2000E01013D6F84
:100B28000A0E3C6F000E01013F6F0A0E3E6F000E69
:100B38000101416F060E406F000E0101436F190E4F
:100B4800426F000E0101456F020E446F000E010155
:100B5800476F750E466F000E0101496F060E486F0C
:100B6800FFEC11F001C0A5F002C0A6F003C0A7F089
:100B780004C0A8F0740E296E000E2A6E4A0E2B6E61
:100B88007F0E2C6EA50E186E000E196EF9EC0DF086
:100B980018C022F019C023F020EC06F022C02DF076
:100BA80023C02EF052EC0BF0740E026E000E036E92
:100BB800000E056E1E0E046EAFEC0EF03BD0E80E74
:100BC800016E7F0E026ECF0E036E000E046E000ED5
:100BD800066E040E056EBAEC0DF001500210D8A492
:100BE80029D0000E0001A96F000EAA6F000EAB6F8E
:100BF800000EAC6FD40E0D6E000E0E6EA3C00FF07B
:100C0800A4C010F0000E126E0A0E116E3BEC09F033
:100C18000DC0A9F00EC0AAF00FC0ABF010C0ACF028
:100C2800A9C001F0AAC002F0ABC003F0ACC004F048
:100C3800F6EC11F0A49A120020EE0CF02250D926FE
:100C48002350DA22DECF01F0DDCF02F0000E046E71
:100C5800030E036E77EC11F0340E0124256E7F0E1F
:100C68000220266E750E276E010E286E25C0F6FF2F
:100C780026C0F7FF27C0D9FF28C0DAFF0800F5CF44
:100C8800DFFF254A262A274A282A25C0F6FF26C03C
:100C9800F7FF27C0D9FF28C0DAFF0800F5CFDFFF2C
:100CA800254A262A274A282A25C0F6FF26C0F7FF04
:100CB80027C0D9FF28C0DAFF0800F5CFDFFF274A91
:100CC800282A27C0D9FF28C0DAFF200EDF6E274A5E
:100CD800282A20EE08F02250D9262350DA22DECF27
:100CE80001F0DDCF02F0000E046E030E036E77EC08
:100CF80011F00F0E0124256E7F0E0220266E25C0EE
:100D0800F6FF26C0F7FF27C0D9FF28C0DAFF080082
:100D1800F5CFDFFF254A262A274A282A25C0F6FFCD
:100D280026C0F7FF27C0D9FF28C0DAFF0800F5CF93
:100D3800DFFF254A262A274A282A25C0F6FF26C08B
:100D4800F7FF27C0D9FF28C0DAFF0800F5CFDFFF7B
:100D5800200E01017C6F7F0E096E010E0A6E20EED7
:100D680006F02250D9262350DA22DF500B6E200ECF
:100D78000C6E200E0D6E20EC0FF0820E096E010E27
:100D88000A6E20EE04F02250D9262350DA22DF50D2
:100D98000B6E300E0C6E3A0E0D6E20EC0FF0850EB9
:100DA800096E010E0A6E20EE02F02250D926235059
:100DB800DA22DF500B6E300E0C6E3A0E0D6E20EC00
:100DC8000FF0880E096E010E0A6E22C0D9FF23C0EB
:100DD800DAFFDF500B6E300E0C6E200E0D6E20EC1D
:100DE8000FF08B0E096E010E0A6E20EE0AF02250EB
:100DF800D9262350DA22DECF01F0DDCF02F0000E33
:100E0800046E640E036E78EC0DF00150130F0B6E38
:100E1800200E0C6E000E0D6E20EC0FF020EE0AF086
:100E28002250D9262350DA22DECF01F0DDCF02F09E
:100E3800000E046E640E036EE8EC0EF00150246E92
:100E48008D0E096E010E0A6E24C00BF0300E0C6E6A
:100E58000A0E0D6E20EC0FF0750E226E010E236E39
:100E680012000FC0D9FF10C0DAFFDECF14F0DECFBA
:100E780015F0DECF16F0DECF17F014C001F015C064
:100E880002F016C003F017C004F03C0E056E000E09
:100E9800066E000E076E000E086E32EC0CF001C0F4
:100EA800E3F002C0E4F014C001F015C002F016C06F
:100EB80003F017C004F03C0E056E000E066E000E1F
:100EC800076E000E086ECCEC0BF001C014F002C0E7
:100ED80015F003C016F004C017F014C001F015C0D7
:100EE80002F016C003F017C004F03C0E056E000EA9
:100EF800066E000E076E000E086E32EC0CF001C094
:100F0800E5F002C0E6F014C001F015C002F016C00A
:100F180003F017C004F03C0E056E000E066E000EBE
:100F2800076E000E086ECCEC0BF001C014F002C086
:100F380015F003C016F004C017F014C001F015C076
:100F480002F016C003F017C004F0180E056E000E6C
:100F5800066E000E076E000E086E32EC0CF001C033
:100F6800E7F002C0E8F014C001F015C002F016C0A6
:100F780003F017C004F0180E056E000E066E000E82
:100F8800076E000E086ECCEC0BF001C0E9F002C051
:100F9800EAF0040E0001E925016E000E0001EA21C5
:100FA800026E000E046E070E036EE8EC0EF001C030
:100FB800EFF002C0F0F0000E0001EE6F460EED6F8C
:100FC8000FD0EDC006F0EEC007F08CEC0FF0065025
:100FD8000001E95F07500001EA5B0001ED4BEE2BD1
:100FE800EDC006F0EEC007F08CEC0FF006500001E3
:100FF800E95D0001EA51800A116E0750800A115814
:10100800D8B0DFD7EDC006F0EEC007F08CEC0FF0DB
:101018000650020B146EE9C0F1F0EAC0F2F0000EBF
:101028000001EC6F000EEB6F0AD015500001E95F6C
:10103800000EEA5B0001EB4BEC2BD8901432030E48
:101048000001EB25F66E7F0EEC21F76E0800F550D7
:101058001410156E1550116E126A11500001E95DD9
:101068000001EA51800A136E1250800A1358D8B052
:10107800DCD70001E94BEA2BE30E0F6E000E106E71
:101088001200592A7D0E596038D0000E88EC0CF0F9
:101098000001BB250001BB6F010E88EC0CF00001BC
:1010A800BC250001BC6F020E88EC0CF00001BD25C8
:1010B8000001BD6F030E88EC0CF00001BE25000195
:1010C800BE6F040E88EC0CF00001BF250001BF6F55
:1010D800050E88EC0CF00001C0250001C06F060E5B
:1010E80088EC0CF00001C1250001C16F070E88ECE7
:1010F8000CF00001C2250001C26F7D0E5918D8A45A
:1011080078D0000E086E070E076E08BE72D0BB0EB0
:101118000724D96E000E0820DA6E460EDF603BD039
:10112800660E0724D96E010E0820DA6EDF50D8A4A7
:1011380007D0660E0724D96E010E0820DA6EDF2A62
:10114800660E0724D96E010E0820DA6EDF50D8B477
:101158004CD0560E0724D96E010E0820DA6EDF50E7
:10116800D8A443D0560E0724D96E010E0820DA6E93
:10117800010EDF6EB30E0724D96E000E0820DA6E5A
:10118800B30E0724E16E000E0820E26EE750D8A4E3
:101198002AD0010E29D05E0E0724D96E010E082030
:1011A800DA6EDF50D8A407D05E0E0724D96E010E80
:1011B8000820DA6EDF2A5E0E0724D96E010E082099
:1011C800DA6EDF50D8B411D0560E0724D96E010E4E
:1011D8000820DA6EDE04D8A408D0560E0724D96E8B
:1011E800010E0820DA6E000EDF6E0706D8A008068A
:1011F8008CD77C0E59641200000E596E000E000147
:10120800BB6F000E0001BC6F000E0001BD6F000E29
:101218000001BE6F000E0001BF6F000E0001C06F1D
:10122800000E0001C16F000E0001C26FBAC0C6F106
:101238000101C76BB9C0C4F10101C56BB8C0C2F1E7
:101248000101C36BB7C0C0F10101C16BB6C0BEF1EB
:101258000101BF6BB5C0BCF10101BD6BB4C0BAF1EF
:101268000101BB6BB3C0B8F10101B96B12000DC02D
:10127800D9FF0EC0DAFFDF501C6E0D4A0E2A1C5033
:1012880064EC11F0D8B0F3D7000E186E000E196E8A
:10129800000E1A6E000E1B6E000E176E2D0E1C1817
:1012A800D8A403D0010E176E04D02B0E1C18D8A496
:1012B80008D00DC0D9FF0EC0DAFFDF501C6E0D4AF2
:1012C8000E2A300E1C18D8A42ED00DC0D9FF0EC07F
:1012D800DAFFDF501C6E0D4A0E2A11501210D8B4D6
:1012E80005D0100E11181210D8A415D0780E1C189D
:1012F800D8B404D0580E1C18D8A40DD0000E126E05
:10130800100E116E0DC0D9FF0EC0DAFFDF501C6E33
:101318000D4A0E2A08D011501210D8A404D0000E7D
:10132800126E080E116E11501210D8A404D0000EBF
:10133800126E0A0E116E1C503DEC11F0D8A006D0AA
:101348001C50E3EC11F0C90F1C6E07D01C50AEEC1A
:1013580011F0D8A037D0300E1C5E1C50136E146AE2
:101368001150135C1450800A156E1250800A1558DB
:10137800D8B028D011C001F012C002F0000E02BE91
:10138800FF0E036E046E18C005F019C006F01AC0EF
:1013980007F01BC008F0EDEC0FF01C500124186E8C
:1013A800000E0220196E000E03201A6E000E042093
:1013B8001B6E0DC0D9FF0EC0DAFFDF501C6E0D4A40
:1013C8000E2AB9D71750D8B41AD018C013F019C0BC
:1013D80014F01AC015F01BC016F0131E141E151EAB
:1013E800161E132A000E14221522162213C00DF001
:1013F80014C00EF015C00FF016C010F0120018C07F
:101408000DF019C00EF01AC00FF01BC010F012003A
:10141800CCC1D9FFCDC1DAFFDF500101CE6F010188
:10142800CF510101CE19FE0BCE190101CF6F010179
:1014380020EE02F0CC51D926CD51DA22DF5001013D
:10144800CE6F0101CE470101CF510101CE19FD0B2D
:10145800CE190101CF6F010120EE04F0CC51D9263D
:10146800CD51DA22DF500101CE6F0101CE47CE47C0
:101478000101CF510101CE19FB0BCE190101CF6F2C
:10148800010120EE06F0CC51D926CD51DA22DF50E9
:101498000101CE6F0101CE47CE47CE470101CF51A2
:1014A8000101CE19F70BCE190101CF6F010120EE12
:1014B80008F0CC51D926CD51DA22DF500101CE6F88
:1014C8000101CE3B0101CF510101CE19EF0BCE191D
:1014D8000101CF6F010120EE0AF0CC51D926CD5180
:1014E800DA22DF500101CE6F0101CE3BCE47010168
:1014F800CF510101CE19DF0BCE190101CF6F0101C8
:1015080020EE0CF0CC51D926CD51DA22DF50010162
:10151800CE6F0101CE3BCE47CE470101CF5101012D
:10152800CE19BF0BCE190101CF6F010120EE0EF0CD
:10153800CC51D926CD51DA22DF500101CE6F0101FD
:10154800CE33CE330101CF510101CE197F0BCE1915
:101558000101CF6F0101CF511200000E0101F16F9F
:10156800000E0101EC6F000E0101F26F000E010187
:10157800F36F000E0101F06F000E0101E86F000E1D
:101588000101ED6F000E0101EE6F000E0101E96F20
:10159800000E0101EF6F000E0101EA6F000E01015C
:1015A800EB6FCCEC11F0D9EC11F0FF0E526E880EF7
:1015B800516E2BEC12F034EC12F0EDEC11F051EC12
:1015C80011F018EC10F0F6EC10F0F28C9D82F28E0F
:1015D800F28C8A0E0101CC6F100E0101CD6F19EC4F
:1015E80012F0460E0101CC6F240E0101CD6F1EECE6
:1015F80012F08D8200F0F29E00F000F0B80E0101AA
:10160800CC6F010E0101CD6F0CEC0AF00101F26FF5
:10161800A40E0101CC6F010E0101CD6F0CEC0AF094
:101628000101F16F900E0101CC6F010E0101CD6F28
:101638000CEC0AF00101EC6FF28E0101F35101018B
:10164800F0190101E86F0101F2510101EE190101E0
:10165800ED6F0101F1510101EF190101E96FECC1D1
:10166800D8F1F2C1D9F1EDC1DAF1EAC1DBF1EBC190
:10167800DCF10101F1516EEC00F00101F36FF0C1F2
:10168800CCF10101F35157EC0FF0F3C1F0F1F2C1C5
:10169800EEF1EFC1F1F12EEC12F0ADD72D0E306E58
:1016A800000E316E62D0250E3218D8B409D029C088
:1016B800D9FF2AC0DAFF32C0DFFF294A2A2A55D0CB
:1016C800000E2F6E42D030C0D9FF31C0DAFFDECF16
:1016D80033F0DDCF34F0020E3026000E31223350C5
:1016E8003410D8A41ED0C30E336E7F0E346E19D0BA
:1016F80033C0F6FF34C0F7FFF86A29C0D9FF2AC003
:10170800DAFF050EF76403D00800F55005D0F6CFD0
:10171800E1FFF7CFE2FFE750DF6E334A342A294A68
:101728002A2A33C0F6FF34C0F7FFF86A050EF764BB
:1017380003D00800F55005D0F6CFE1FFF7CFE2FF60
:10174800E7500009D8B411D0D3D72BC0F6FF2CC06E
:10175800F7FF2B4A2C2A0800F5CF32F03250000A46
:10176800D8B40FD0730AD8B4AED72BC0F6FF2CC0AC
:10177800F7FF2B4A2C2A0800F5CF32F03250D8A4B4
:1017880092D729C0D9FF2AC0DAFF000EDF6E1200F7
:10179800000E0A6E08AE0AD0081E071E061E056C4B
:1017A800000E062207220822010E0A6E04AE0AD095
:1017B800041E031E021E016C000E022203220422D4
:1017C800010E0A1A000E0B6E000E0C6E000E0D6E46
:1017D800000E0E6E0550061007100810D8B42AD057
:1017E800010E096E06D0D89005360636073608363B
:1017F800092A08AEF8D7D8900B360C360D360E36B7
:101808000550015C06500258075003580850045808
:10181800D8A009D00550015E0650025A0750035A55
:101828000850045A0B80D890083207320632053225
:10183800092EE1D70A50D8B408D00E1E0D1E0C1E72
:101848000B6C000E0C220D220E220BC001F00CC0F6
:1018580002F00DC003F00EC004F01200000E0A6E74
:1018680004AE0AD0041E031E021E016C000E0222E2
:1018780003220422010E0A6E08AE08D0081E071EB5
:10188800061E056C000E06220722082205500610C7
:1018980007100810D8B424D0010E096E06D0D890CD
:1018A8000536063607360836092A08AEF8D7055031
:1018B800015C065002580750035808500458D8A035
:1018C80008D00550015E0650025A0750035A0850C6
:1018D800045AD8900832073206320532092EE7D763
:1018E8000A50D8B408D0041E031E021E016C000E54
:1018F80002220322042201C001F002C002F003C048
:1019080003F004C004F01200056E32D0000E026E1F
:10191800420EDAEC0CF01200010E026E420EDAEC06
:101928000CF01200020E026E420EDAEC0CF01200FD
:10193800030E026E420EDAEC0CF01200040E026E78
:10194800420EDAEC0CF01200050E026E420EDAECD2
:101958000CF01200060E026E420EDAEC0CF01200C9
:10196800070E026E420EDAEC0CF01200000E1200A6
:101978000550000AD8B4CAD7010AD8B4CDD7030A8B
:10198800D8B4D0D7010AD8B4D3D7070AD8B4D6D791
:10199800010AD8B4D9D7030AD8B4DCD7010AD8B415
:1019A800DFD70F0AD8B4E2D7000E1200036E035037
:1019B8009EEC10F0046E30D004A002D0010E12008C
:1019C800000E120004A202D0010E1200000E120036
:1019D80004A402D0010E1200000E120004A602D0C8
:1019E800010E1200000E120004A802D0010E12000F
:1019F800000E120004AA02D0010E1200000E1200FE
:101A080004AC02D0010E1200000E120004AE02D087
:101A1800010E1200000E12000250000AD8B4CCD7F2
:101A2800010AD8B4CFD7030AD8B4D2D7010AD8B498
:101A3800D5D7070AD8B4D8D7010AD8B4DBD7030A50
:101A4800D8B4DED7010AD8B4E1D7000E1200000ED0
:101A58000101D76F000ED66F21D00101D6510101C7
:101A6800CD250101D16F0101D7510101CE2101011D
:101A7800D26FD1C1F6FFD2C1F7FFF86A050EF7643D
:101A880003D00800F55005D0F6CFE1FFF7CFE2FF0D
:101A9800E75080EC10F00101D64BD72BFF0E010167
:101AA800D16FFF0E0101D26FCFC1D3F1D0C1D4F1F4
:101AB8000101D1510101D3270101D2510101D423E0
:101AC8000101D3510101D65D0101D751800A0101FD
:101AD800D56F0101D451800A0101D559D8A0BDD7CD
:101AE8000A0E80EC10F01200000E066E04AE06D04E
:101AF800036C041ED8B0042A010E066E02AE06D08E
:101B0800016C021ED8B0022A010E061A000E086ED9
:101B1800000E076E03500410D8B41CD0010E056ED9
:101B280004D0D89003360436052A04AEFAD7D890E4
:101B3800073608360350015C04500258D8A005D077
:101B48000350015E0450025A0780D89004320332D1
:101B5800052EEDD70650D8B404D0076C081ED8B0AF
:101B6800082A07C001F008C002F0120031D001C0F5
:101B7800F6FF02C0F7FF0800F5500009D8B40DD0F1
:101B880003C0D9FF04C0DAFF01C0F6FF02C0F7FFA7
:101B9800DE500900F518D8B417D003C0D9FF04C027
:101BA800DAFFDF50076E086A071E081E074A082A70
:101BB80001C0F6FF02C0F7FF0800F5500724016EC8
:101BC800000E0820026E1200014A022A034A042A63
:101BD8000506D8A006060528CAE10628D8A4C7D74E
:101BE800000E026E000E016E120018C0D9FF19C057
:101BF800DAFFDECF1AF0DECF1BF0DECF1CF0DECF2F
:101C08001DF051C001F052C002F0000E02BEFF0EDE
:101C1800036E046E3C0E056E000E066E000E076E17
:101C2800000E086EEDEC0FF0011E021E031E041ECE
:101C3800012A000E0222032204221A5001241E6ED9
:101C48001B5002201F6E1C500320206E1D500420C4
:101C5800216E1E0E0F6E000E106E35EC07F00FC0D1
:101C680018F010C019F0120001011DBF0CD00101BD
:101C78001D5104E101011C05D8A005D001011C0774
:101C8800D8A01D0705D0000E01011D6F000E1C6FA6
:101C980001011FBF0CD001011F5104E101011E0504
:101CA800D8A005D001011E07D8A01F0705D0000E37
:101CB80001011F6F000E1E6F010109BF0CD0010149
:101CC800095104E101010805D8A005D00101080760
:101CD800D8A009071200000E0101096F000E086F55
:101CE8001200000E0F01386F000E806E926892800D
:101CF8009282929492969298929A000E0F01396F5E
:101D0800000E816E9368000E0F013A6F000E826E0E
:101D1800946894909492949494969488949A948CB9
:101D2800948E000E0F013B6F000E836E9568000EB7
:101D38008D6E95909592959495969598959A959C73
:101D4800958E000E0F013C6F000E846E966896907B
:101D5800969296941200000E0C6E000E0B6E1AD01E
:101D68000B500224066E0C500320076E06C0F6FFC7
:101D780007C0F7FFF86A050EF76403D00800F550AE
:101D880005D0F6CFE1FFF7CFE2FFE750BCEC10F04B
:101D98000B4A0C2AFF0E066EFF0E076E04C008F0F1
:101DA80005C009F0065008260750092208500B5CA8
:101DB8000C50800A0A6E0950800A0A58D8A0D0D759
:101DC8000A0EBCEC10F01200000E066E02AE06D031
:101DD800016C021ED8B0022A010E066E04AE04D0B1
:101DE800036C041ED8B0042A03500410D8B418D0C9
:101DF800010E056E04D0D89003360436052A04AEC9
:101E0800FAD70350015C04500258D8A004D00350FC
:101E1800015E0450025AD89004320332052EF1D7DD
:101E28000650D8B404D0016C021ED8B0022A01C0F2
:101E380001F002C002F0120009C0D9FF0AC0DAFF9F
:101E48000DC0DFFF0BC001F0026A000E046E0A0E1F
:101E5800036EE8EC0EF00150300F0906D8A00A0610
:101E680009C0D9FF0AC0DAFFDF6E0A0E016E0B50F7
:101E7800D9EC10F00B6E0B50D8B40BD00B50300FC0
:101E88000906D8A00A0609C0D9FF0AC0DAFFDF6E22
:101E980012000906D8A00A0609C0D9FF0AC0DAFF4D
:101EA8000CC0DFFF12000101CD6FCDC1CEF10101E1
:101EB800CEA102D0828001D082900101CEA302D0AF
:101EC800828201D082920101CEA502D0828401D003
:101ED80082940101CEA702D0828601D082960101A8
:101EE800CEA902D0838001D083900101CEAB02D06D
:101EF800838201D083920101CEAD02D0838401D0C8
:101F080083940101CEAF02D0838601D0839612005C
:101F1800030E0614086E000E0714096E0850091007
:101F2800D8A41ED006C001F007C002F0000E046E4F
:101F3800640E036E5FEC10F001500210D8A415D0A7
:101F48002C0E0624016E010E0720026E010E046E8F
:101F5800900E036E5FEC10F001500210D8B405D05B
:101F6800010E076E6D0E066E1200010E076E6E0EE4
:101F7800066E1200500EF66E240EF76E000EF86E06
:101F880000EEF5F010EE06F00900F5CFEEFFE55093
:101F9800E150FAE102EE00F0680EEE6AE806FDE1B3
:101FA80001EE00F0CC0EEE6AE806FDE100EEB3F0BB
:101FB800420EEE6AE806FDE100EE4FF0100EEE6A02
:101FC800E806FDE15F905F92000EF86E0001B1EF48
:101FD8000AF0000E096E000E0A6E000E0B6E000E5F
:101FE8000C6E01A008D00550092606500A22075099
:101FF8000B2208500C22D8900536063607360836CC
:10200800D890043203320232013201500210031018
:102018000410D8A4E6D709C001F00AC002F00BC02A
:1020280003F00CC004F01200170ED56E0B0ED76E1D
:10203800DB0ED66ED650D7CFCEF10101CF6BCEC115
:10204800CFF10101CE6B0101CE1101016E6F0101CB
:10205800CF5101016F6FF294F28A6E0E0101CC6FBD
:10206800240E0101CD6F1EEC12F032EC12F01200BA
:10207800000E8D6E000E8C6E000E896E000E8A6E3C
:10208800000E8B6E070E966E926893689468BF0E6A
:10209800956EFC0E0F013A6F3F0E0F01396F3F0E20
:1020A8000F013B6F070E0F013C6F2F0E0F01386FAA
:1020B8006168F19E120003500410D8B418D0010EC4
:1020C800056E04D0D89003360436052A04AEFAD734
:1020D8000350015C04500258D8A004D00350015E9C
:1020E8000450025AD89004320332052EF1D701C0A9
:1020F80001F002C002F012000101CC6F5650D8B4B2
:10210800FDD7A3B803D0CCC173FF12D0A398585001
:10211800010D000EF324D96E020EF420DA6ECCC144
:10212800DFFF582A3F0E586402D0000E586E56063C
:10213800A3881200016E0AD080501200815012004C
:102148008250120083501200845012000150410A3C
:10215800D8B4F2D7030AD8B4F1D7010AD8B4F0D763
:10216800070AD8B4EFD7010AD8B4EED7000E120088
:10217800016E5650D8B4FDD7A3B803D001C073FF81
:1021880012D0A3985850010D000EF324D96E020EF8
:10219800F420DA6E01C0DFFF582A3F0E586402D0DF
:1021A800000E586E5606A3881200026E000E046ECA
:1021B8000150D8B415D0010E036E03D0D890013663
:1021C800032A01AEFBD7D89004360150025CD8A090
:1021D80003D00150025E0480D8900132032EF3D759
:1021E80004501200A39AA398080E706E900E716E98
:1021F800240E726E820E756E060E766E000E586E86
:10220800000E576E400E566E000E556E000E546E40
:10221800000E536EA38A1200400E566012D057501B
:10222800010D000EF324D96E020EF420DA6EDF5091
:10223800736E572A3F0E576402D0000E576E562A07
:102248001200A398120001C007F002C008F008D0DD
:1022580007C0D9FF08C0DAFF03C0DFFF074A082A12
:102268000506D8A006060528F3E10628D8B412000A
:10227800EFD7066E010E056E7B0E066003D0610E69
:10228800066007D00650BDEC11F0D8B002D0000EA1
:10229800056E05C004F0043012001A0EBA6E280E3E
:1022A800BB6E000EBC6E9E929D826C0E0101CC6FBF
:1022B800240E0101CD6F19EC12F030EC12F012006F
:1022C800036E010E026E200E0318D8B408D00E0E4D
:1022D800036003D0090E036002D0000E026E02C034
:1022E80001F00130120001500302F3CF05F0F4CFE2
:1022F80006F001500402F350062602500302F35080
:10230800062605C001F006C002F012000101705156
:1023180001017111D8B4120001D8120005000101A1
:10232800FA6E7051FD6E7151FE6EF850FF6EFA50E4
:1023380012009E924F505010D8B4120001D81200CB
:102348000500FA6E4F50FD6E5050FE6EF850FF6E4D
:10235800FA501200036E000E026E3A0E036005D0AA
:102368002F0E036402D0010E026E02C001F001308C
:102378001200036E000E026E5B0E036005D0400E65
:10238800036402D0010E026E02C001F00130120097
:1023980034EC12F03CEC10F0EDEC11F051EC11F0D3
:1023A80018EC10F0F6EC10F01200390E0001C76FAF
:1023B8008F0EC86F8C0EC96F590ECA6F1200016E4E
:1023C8007B0E016004D0600E016401D0019A0150B7
:1023D8001200700ED36E040ED26E400E9B6ED2BEEB
:1023E8001200FDD701C0C7F002C0C8F003C0C9F091
:1023F80004C0CAF01200C7C001F0C8C002F0C9C0CA
:1024080003F0CAC004F01200F29401016F51D76EB4
:102418006EC1D6FF8AEC11F01200010E0001C72729
:10242800000EC823C923CA231200CCC14FF0CDC166
:1024380050F01200CCC170F1CDC171F1120038EC2E
:102448000EF011EC12F0120053544753545775EC28
:102458000EF0120000F01200BA841200D58E12009D
:08246800D09E120012001200C8
:107EEE000000000000000000000000000000000084
:107EFE0000000000001F1C1F1E1F1E1F1F1E1F1E26
:107F0E001F4A616E4665624D61724170724D6179B4
:107F1E004A756E4A756C4175675365704F63744E42
:107F2E006F764465630053756E4D6F6E547565576D
:107F3E0065645468754672695361740020486965BA
:107F4E00202573206178656C00215445527E3030B7
:107F5E005F00215445527E31305F00215445527EE0
:107F6E0032305F00215445527E33305F002154453C
:107F7E00527E34305F00215445527E37305F0021EF
:107F8E005445527E30315F00215445527E31315F6F
:107F9E0000215445527E32315F00215445527E33CA
:107FAE00315F00215445527E34315F0021544552D9
:107FBE007E37315F00286E756C6C29002153544258
:107FCE007E00215354477E0021544D527E0021479E
:107FDE0054527E00215354527E0021544D537E0044
:107FEE00215354577E0021474152002153415200E4
:017FFE000082
:020000040020DA
:08000000FFFFFFFFFFFFFFFF00
:020000040030CA
:0E000000FF221F3CFFBF85FF0FC00FE00F4027
:00000001FF
